:020000040000FA
:060000000A128A110C280F
:10000800FE00030EF3000A08F4000A128A11D3282E
:100018000A128A110F28F001F101F2018312031369
:10002800A001A101A201A301A401A501A601A701A4
:10003800A801A901AA0183010A128A11EF28003038
:100048008A000408840A8207003449346E3467340D
:100058007234653473346134723420344334653413
:100068006E34743465346E3461343A342034523426
:1000780061346E3467346F34283430342D3432347C
:1000880029340D34003445346C3420346E347534DE
:100098006D34653472346F34203465346C346534AF
:1000A8006734693464346F342034653473343A34D3
:1000B800203425346434003449346E34673472345F
:1000C8006534733461347234203455346E34693491
:1000D800643461346434653473343A3420340D3410
:1000E8000034563461346C346F34723420346434E0
:1000F80065346C34203463346F346E347434613452
:1001080064346F3472343A340D34003449346E3404
:10011800673472346534733461347234203444344F
:100128006534633465346E34613473343A3420345E
:100138000D340034831603178801890183160313CD
:100148000510851087018801831203138501860134
:10015800870188018901831603130F128F160F1761
:100168000F148113033095001614961418121815DD
:10017800831603178711193083160313990001306A
:100188009A0083120313981718131816831603136B
:1001980018139816831203138C120C1208000B1CE8
:1001A800D628D728E828831203130618DC28DD2868
:1001B800E0280808013E88008618E328E428E72894
:1001C8000808FF3E88000B1074088A00730E83002D
:1001D800FE0E7E0E09000A128A119E200A128A114A
:0801E800F4280A128A110C2808
:04400E00D420FF3F7C
:00000001FF
