:020000040000FA
:060000000A128A110C280F
:10000800FE00030EF0000A08F1000A128A11342ECD
:100018000A128A110F28FA01FB0183120313E9015E
:10002800EA01EB01EC0183160313A001A101A2016F
:10003800A301A401A501A601A701A801A9018301A3
:100048000A128A11E92EFF0000308A007F08820711
:100058002C280A128A11152F023083160313AC00BC
:100068004530AB00A930AA00AA0B3828AB0B3828BA
:10007800AC0B38288316031324080A128A110D249E
:100088000A128A1159300A128A11CE260A128A11C6
:10009800023083160313AC004530AB00A930AA0028
:1000A800AA0B5428AB0B5428AC0B54288312031307
:1000B8006C089900023083160313AC004530AB007E
:1000C800A930AA00AA0B6628AB0B6628AC0B6628D9
:1000D800831203136B089900023083160313AC00D4
:1000E8004530AB00A930AA00AA0B7828AB0B7828BA
:1000F800AC0B7828831203136A0899000230831620
:100108000313AC004530AB00A930AA00AA0B8A281B
:10011800AB0B8A28AC0B8A2880300A128A11CE26AB
:100128000A128A110B300A128A11CE260A128A1173
:10013800831203138C1EA128A2289C281A08D03EDB
:1001480083160313AA002A0883120313E900333025
:100158001A020318B028B1289C286E300A128A1196
:10016800CE260A128A11831203138C1EBC28BD28BE
:10017800B7281A08D03E83160313AA002A08FA00E3
:100188000230831203136906031DCB28CC28D2281A
:1001980036301A020318D128D228B72844300A1258
:1001A8008A11CE260A128A11831203138C1EDD28A7
:1001B800DE28D8281A08D03E83160313AA002A0876
:1001C800A8000230831203136906031DEC28ED28EA
:1001D800F92805307A06031DF228F328F928363065
:1001E8001A020318F828F928D8286908831603136F
:1001F800AA00AB012A0883120313BA00831603135B
:100208002B0883120313BB007A0883160313AC0070
:10021800AD012C0883120313BC00831603132D08A9
:1002280083120313BD000A128A11BB250A128A1110
:10023800831203133A0883160313AE002E08A60090
:100248002608AA00AB012A0883120313BA008316F2
:1002580003132B0883120313BB0083160313280808
:10026800AC00AD012C0883120313BC0083160313E2
:100278002D0883120313BD000A128A11BB250A1226
:100288008A11831203133B0883160313A1008312F8
:1002980003133A0883160313A000023083160313CE
:1002A800AC004530AB00A930AA00AA0B5929AB0B0A
:1002B8005929AC0B592983160313210883120313F8
:1002C800B20083160313200883120313B1002930E8
:1002D8000A128A11CE260A128A11831603132108DC
:1002E800A3002008A200080083120313B000972A75
:1002F80025302F06031981298229A829300A84006C
:1003080083130008031989298A2999292F08A80025
:100318002808F200300A840000080A128A112720EF
:100328000A128A11831203137B292F08A8003008A8
:10033800840000088400280880000130A8003008E4
:100348008400280880077B29AB010130A607FF300D
:10035800260784000A128A1100230A128A11AF00A4
:10036800A800A9012908003A0319BB29972A2808D7
:10037800003A0319AB2A643A0319C6290D3A03193E
:10038800C629972A2708840083130008A80002308A
:100398008007280884000008AD00840A0008AE0021
:1003A800AE1FD729D829E1290330A8002808AB04B3
:1003B800AD09AE09AD0A0319AE0AAF01AF0A2F089D
:1003C800A8002807013E84000A128A1100230A1295
:1003D8008A11A9000A128A1100230A128A11AA0096
:1003E8002A082E02031DFA2929082D020318FD29BF
:1003F800FE29FF29092A0130A8002808AF0705307F
:100408002F06031D082A092AE3292B080339031993
:100418000E2A0F2A322A300A84008313000803198F
:10042800162A172A242A2D30A8002808F200300A94
:10043800840000080A128A1127200A128A11322A17
:100448002D30A800300884000008840028088000A7
:100458000130A8003008840028088007831203139D
:100468002F08A8002808AC008C2A0A30A000003009
:10047800A1002C08A8002807013E84000A128A114E
:1004880000230A128A11F2000A128A1100230A12A2
:100498008A11F3002E08F5002D08F4000A128A11BB
:1004A8003A250A128A11730883120313A3007208EB
:1004B800A2000A128A11F8250A128A11831203135C
:1004C8002008303EA9002908AF00300A84008313B1
:1004D80000080319702A712A7E2A2F08A800280804
:1004E800F200300A840000080A128A1127200A1232
:1004F8008A118C2A2F08A80030088400000884007C
:10050800280880000130A8003008840028088007E7
:10051800FF3083120313A8002808AC072C0A031D18
:10052800962A972A392A013083120313A607FF3027
:10053800260784000A128A1100230A128A11A800C9
:100548002808AF002F08031DAA2AAB2A7C29A60178
:04055800A7010800EF
:1006000003308A000408840A82070034013400346D
:100610000A34003464340034E834033410342734AA
:1006200049346E34673472346534733461347234EF
:100630002034433465346E34743465346E3461343C
:100640003A342034523461346E3467346F34283491
:1006500030342D34323429340D34003445346C3484
:1006600020346E3475346D34653472346F34203414
:1006700065346C3465346734693464346F342034E1
:10068000653473343A3420342534643420340D34E2
:10069000003449346E3467347234653473346134F1
:1006A0007234203455346E346934643461346434C3
:1006B000653473343A3420340D34003456346134A4
:1006C0006C346F3472342034643465346C342034C8
:1006D00063346F346E347434613464346F34723420
:1006E0003A340D34003449346E346734723465342E
:1006F0007334613472342034443465346334653483
:100700006E34613473343A3420340D34003425347B
:100710006434003483120313A500922B0130A0002F
:100720002008A5072508840020308313000603193C
:100730009A2B9B2B8E2B2508840009300006031969
:10074000A22BA32B8E2BA301A401A20125088400B8
:100750002D300006031DAD2BAE2BB72B0130A000B2
:100760002008A2070130A0002008A507E92B2508D2
:1007700084002B300006031DBE2BBF2BE92B01305C
:10078000A0002008A507E92B831203132508840085
:100790002408F3002308F2000A30F4000030F500CA
:1007A0000A128A1188260A128A1183130008720716
:1007B00083120313A0000030031801307307A10057
:1007C0002008D03EA30021080318013EFF3EA400EC
:1007D000BF2B2508840000080A128A1103270A1279
:1007E0008A110318F42BF52BC42B83120313220850
:1007F0000319FB2BFC2B082C2309A0002409A100C2
:10080000A00A0319A10A2008F8002108F9000C2CFD
:100810002408F9002308F8000800F9006430F20009
:100820000030F300790883120313A400A501240803
:10083000F4002508F5000A128A1178240A128A1198
:10084000720883120313A6002608EC006430F2003D
:100850000030F3007908A400A5012408F40025085D
:10086000F5000A128A11E1240A128A117208831211
:100870000313A6002608FB000A30F2000030F30044
:100880007B08A400A5012408F4002508F5000A123D
:100890008A1178240A128A11720883120313A6009F
:1008A0002608EB000A30F2000030F3007B08A400B9
:1008B000A5012408F4002508F5000A128A11E12494
:1008C0000A128A11720883120313A6002608EA008E
:1008D0006C08303EA4002408EC006B08303EA400F5
:1008E0002408EB006A08303EA4002408EA0008004F
:1008F00083120313A101F31F7E2C7F2C862CF20997
:10090000F309F20A0319F30AA101A10AF51F892CC0
:100910008A2C932CF409F509F40A0319F50A01301D
:10092000F6007608A106A201A30172087304031958
:100930009A2C9B2CD22CA001A00AA92C01300310C8
:10094000F20DF30DFF3E031D9F2C0130F6007608DB
:10095000A007F31FAC2CAD2C9E2C01300310A20D70
:10096000A30DFF3E031DAE2C73087502031DBA2CA8
:1009700072087402031CBD2CBE2CC52C7208F40234
:100980007308031CF503F502221401300310F30C65
:10099000F20CFF3E031DC62C0130A002031DD12C1A
:1009A000D22CAD2C21080319D62CD72CDC2CA20973
:1009B000A309A20A0319A30A2308F3002208F200DC
:1009C0000800F801F51FE52CE62CED2CF409F509DB
:1009D000F40A0319F50AF801F80AF31FF02CF12CB8
:1009E000F62CF209F309F20A0319F30A72087304E8
:1009F0000319FB2CFC2C2B2DF701F70A0A2D0130D3
:100A00000310F20DF30DFF3E031D002D0130F60023
:100A10007608F707F31F0D2D0E2DFF2C73087502B6
:100A2000031D142D72087402031C172D182D1E2D82
:100A30007208F4027308031CF503F5020130031079
:100A4000F30CF20CFF3E031D1F2D0130F702031DB6
:100A50002A2D2B2D0E2D780803192F2D302D352DF5
:100A6000F409F509F40A0319F50A7508F300740886
:100A7000F2000800F701F801720873040319412D10
:100A8000422D792DF901F90A502D01300310F20D94
:100A9000F30DFF3E031D462D0130F6007608F907E1
:100AA000F31F532D542D452D01300310F70DF80D74
:100AB000FF3E031D552D73087502031D612D72083D
:100AC0007402031C642D652D6C2D7208F4027308EA
:100AD000031CF503F502771401300310F30CF20C3C
:100AE000FF3E031D6D2D0130F902031D782D792D78
:100AF000542D7808F3007708F200080083160317D6
:100B00008801890183160313850106148614880160
:100B100083120313850186018701880189018316E9
:100B200003130F128F160F170F1481130330950044
:100B300016149614181218158316031787111930F6
:100B400083160313990001309A0083120313981738
:100B50001813181683160313181398168312031309
:100B60008C120C128B170B17831603138C120C129A
:100B70000B148B150800823083120313BE003E084D
:100B8000B1003B08B3003A08B20053300A128A1190
:100B9000AD260A128A11823083120313BE003E086A
:100BA000B1003D08B3003C08B2003F300A128A1180
:100BB000AD260A128A113F3083120313BE003E088D
:100BC000F20053300A128A115F260A128A1153303A
:100BD0000A128A118A230A128A11790883120313CE
:100BE000E8007808E7006808BB006708BA0008005A
:100BF00083120313200821040319FF2D002E2F2E2A
:100C0000A501A50A0E2E01300310A00DA10DFF3E77
:100C1000031D042E0130A4002408A507A11F112ED6
:100C2000122E032E21082302031D182E2008220253
:100C3000031C1B2E1C2E222E2008A2022108031C9E
:100C4000A303A30201300310A10CA00CFF3E031D5F
:100C5000232E0130A502031D2E2E2F2E122E230827
:100C6000A1002208A00008000B1C372E382E582E99
:100C70008312031306183D2E3E2E482E83160313AF
:100C80002408013EA40025080318013E003EA500EB
:100C9000831286184C2E4D2E572E831603132408CC
:100CA000FF3EA40025080318013EFF3EA5000B10DF
:100CB00071088A00700E8300FE0E7E0E0900F4009B
:100CC0007408F3007308F500692E0130F30073080F
:100CD000F5077508840083130008031D702E712E1C
:100CE000652E7A2E0130F3007308F5070130F3000A
:100CF0007308F207720884000008F3007508840086
:100D0000730880000008031D862E872E722E0800AF
:100D1000F601F701721C8D2E8E2E942E7408F607A4
:100D20000318F70A7508F70701300310F40DF50DE5
:100D3000FF3E031D952E01300310F30CF20CFF3E15
:100D4000031D9C2E72087304031DA72EA82E8A2E45
:100D50007708F3007608F200080083120313B60048
:100D60003608B4003408B800B9013230B400340891
:100D7000B7003108B4003408A6003730B500350894
:100D8000A70038300A128A1178210A128A118312B8
:100D900003133808840083138001080083120313AF
:100DA000B600B7010130B3003308B8003130B300EA
:100DB0003308B5003608B3003308A6003530B40058
:100DC0003408A70037300A128A1178210A128A11D2
:100DD00008000A128A117E250A128A11831603134B
:100DE0002408831203138800831603132208831236
:100DF000031385000A128A1130200A128A11EE2E7E
:100E00000A128A110C28F300F2013A307302031817
:100E10000A2F0B2F132F30307302031C102F112FAA
:100E2000132FF201F20A720C0800831203130C1E36
:0C0E30001A2F1B2F152F720899000800C4
:04400E00D420FF3F7C
:00000001FF
