:020000040000FA
:060000000A128A110C280F
:10000800FE00030EF0000A08F1000A128A11362ACF
:100018000A128A110F28FA01FB0183132030840089
:1000280033300A128A117A220A128A1183010A12BB
:100038008A11AE29F9006430F2000030F300790823
:1000480083120313B700B8013708F4003808F50025
:100058000A128A1189200A128A117208831203135C
:10006800B9003908FB006430F2000030F300790869
:10007800B700B8013708F4003808F5000A128A11E9
:1000880055210A128A11720883120313B90039081C
:10009800FA000A30F2000030F3007A08B700B8011D
:1000A8003708F4003808F5000A128A1189200A1264
:1000B8008A11720883120313B9003908B1000A3093
:1000C800F2000030F3007A08B700B8013708F400EE
:1000D8003808F5000A128A1155210A128A11720885
:1000E80083120313B9003908B0007B08303EB7000B
:1000F8003708FB003108303EB7003708B100300838
:10010800303EB7003708B000080083120313B4016B
:10011800F31F8F2890289728F209F309F20A031988
:10012800F30AB401B40AF51F9A289B28A428F409F5
:10013800F509F40A0319F50A0130F6007608B40641
:10014800B501B601720873040319AB28AC28E3287B
:10015800B301B30ABA2801300310F20DF30DFF3EC4
:10016800031DB0280130F6007608B307F31FBD2839
:10017800BE28AF2801300310B50DB60DFF3E031D94
:10018800BF2873087502031DCB2872087402031C6C
:10019800CE28CF28D6287208F4027308031CF5036A
:1001A800F502351401300310F30CF20CFF3E031D69
:1001B800D7280130B302031DE228E328BE283408FB
:1001C8000319E728E828ED28B509B609B50A03197F
:1001D800B60A3608F3003508F20008000230831228
:1001E8000313BC004530BB00A930BA00BA0BFA288B
:1001F800BB0BFA28BC0BFA288312031329080A122E
:100208008A111E200A128A116130831203131A06FA
:10021800031D0F2910295429413083120313BB00F1
:10022800ED30BA00BA0B1629BB0B16291B2983120D
:1002380003130C1E2029212923297B08990041300A
:1002480083120313BB00ED30BA00BA0B2929BB0B8C
:1002580029292E29831203130C1E33293429362900
:1002680031089900413083120313BB00ED30BA0006
:10027800BA0B3C29BB0B3C294129831203130C1EE2
:100288004629472949293008990041308312031328
:10029800BB00ED30BA00BA0B4F29BB0B4F295429CC
:1002A8000800F801F51F59295A296129F409F509A7
:1002B800F40A0319F50AF801F80AF31F64296529F5
:1002C8006A29F209F309F20A0319F30A7208730496
:1002D80003196F2970299F29F701F70A7E29013030
:1002E8000310F20DF30DFF3E031D74290130F600D3
:1002F8007608F707F31F8129822973297308750285
:10030800031D882972087402031C8B298C299229E1
:100318007208F4027308031CF503F5020130031098
:10032800F30CF20CFF3E031D93290130F702031D65
:100338009E299F29822978080319A329A429A92974
:10034800F409F509F40A0319F50A7508F3007408A5
:10035800F20008000A128A11F9210A128A1183127E
:100368000313290885000A128A11F2200A128A1139
:10037800831203138C1EC129C229BC291A08D03E36
:10038800BD003D08AF008C1ECA29CB29C7291A0811
:10039800D03EBD003D08AE008C1ED329D429D029FB
:1003A8001A08D03EBD003D08AD000A30BD003D082A
:1003B800F2002E080A128A115C220A128A1183128C
:1003C8000313BE006430BF003F08F2002F080A1272
:1003D8008A115C220A128A11831203133E072D0721
:1003E8008800B3290A128A110C288316031788017A
:1003F8008901831603138501061486148801831264
:100408000313850186018701880189018316031377
:100418000F128F160F170F1481130330950016143F
:100428009614181218158316031787111930831696
:100438000313990001309A008312031398171813B5
:1004480018168316031318139816831203138C12A5
:100458000C128B170B17831603138C120C120B1428
:100468008B1508000B1C392A3A2A552A83120313C4
:1004780006183F2A402A482A2908013EA9002A08C6
:100488000318013E003EAA0086184B2A4C2A542A1B
:100498002908FF3EA9002A080318013EFF3EAA00CA
:1004A8000B1071088A00700E8300FE0E7E0E090084
:1004B800F500F401751C612A622A662A7208F300A5
:1004C8007308F4070310F20D0310F50C7508031DEB
:1004D8006E2A6F2A5E2A7408080002308A0004080F
:1004E800840A8207003425346434003464008001AF
:0C04F800840A04060319003404067B2A61
:04400E00D420FF3F7C
:00000001FF
