:020000040000FA
:060000000A128A110C280F
:10000800FE00030EF1000A08F2000A128A1166299E
:100018000A128A110F28F701F801F901FA0183126F
:100028000313A90183010A128A11C8288312031332
:10003800A2002203031D21282228472876087F3E94
:10004800A0002008A5002508A00004300310A00C7B
:10005800FF3E031D2A282008A1002108A300250827
:100068000F39A0002008A40023080A128A11A12130
:100078000A128A118312031324080A128A11A12171
:100088000A128A11712802302206031D4C284D28B5
:1000980071287608BF3EA0002008A5002508A0000A
:1000A80004300310A00CFF3E031D55282008A100B2
:1000B8002108A3002508F039A0002008A40023087F
:1000C8000A128A11A1210A128A1183120313240821
:1000D8000A128A11A1210A128A11080000300A1294
:1000E8008A11E1210A128A111A3083120313A1001E
:1000F800F730A000A00B7E28A10B7E288328303083
:100108000A128A11A1210A128A11073083120313D5
:10011800A1007C30A000A00B8F28A10B8F28000025
:1001280030300A128A11A1210A128A110230831270
:100138000313A2000430A100B930A000A00BA2282C
:10014800A10BA228A20BA228A92830300A128A11D2
:10015800A1210A128A113C300A128A11A1210A121D
:100168008A1108300A128A11A1210A128A11013053
:100178000A128A11A1210A128A1106300A128A115A
:10018800A1210A128A1108000A128A113E210A12B4
:100198008A110A128A1172200A128A110A128A1105
:1001A800D4210A128A11F601F60A01300A128A11BC
:1001B8001A200A128A1101300A128A1115210A120C
:1001C8008A11F601F60A02300A128A111A200A1256
:1001D8008A110F300A128A1115210A128A110B305E
:1001E80083120313A8002630A7005D30A600A60BD3
:1001F800FB28A70BFB28A80BFB28831203139F18C7
:1002080006290729D728203083120313A600A60B36
:100218000B290000831203139F14D7280A128A118E
:100228000C2883120313A200A001A1013029200881
:10023800220784000A128A11BB210A128A110A12A3
:100248008A1184210A128A11013083120313A0072C
:100258000318A10A0030A1072008220784000A1207
:100268008A11BB210A128A11003A031D3C293D2933
:100278001B29080003308316031788008901831699
:100288000313051485140713871388018901831242
:1002980003138501870188018901831603130F174A
:1002A8008F160F120F148112811101158114011478
:1002B8008B170B148B150B170B110C1783120313C9
:1002C8000C130800831203130C1F6B296C297A295D
:1002D8001F0CF000700C0F39003A031D74297529A2
:1002E80079291E08F0007008A9000C130B11FF30C3
:1002F800810072088A00710E8300FE0E7E0E0900CE
:10030800F4007408F3007308F5007508F300730827
:10031800F60083120313091476080A128A11E121E0
:100328000A128A118312031389140D30F300F30B98
:100338009B298312031389100800F5008312031305
:10034800091075080A128A11E1210A128A1183120A
:10035800031389140630F4003030F300F30BB2298C
:10036800F40BB2290000831203138910080001302E
:100378008A000408840A8207003453345F34313415
:100388003A34203453345F343234203453345F34B5
:1003980033343A34003430342E343034303400348A
:1003A80000300A128A11A1210A128A1101300A1298
:1003B8008A11A1210A128A1108000430831203133A
:0403C80088000800A1
:04400E00D420FF3F7C
:00000001FF
