:020000040000FA
:060000000A128A110E280D
:10000800FE00030EF7000408F8000A08F9000A12B7
:100018008A112A280A128A11112883133030FD0008
:100028000130FE002230FF00203084000A128A11BD
:1000380013210A128A11B501B601F001F101F2018A
:10004800F301F40183010A128A11C22883120313EF
:100058000C1F2F28302841281F0CF500750C0F396C
:10006800003A031D3828392840281E08F500F601F3
:100078007508F0007608F1000C130B1D442845287C
:1000880065288512051333033404031D4C284D28B5
:10009800572885167308203E8400831300088800BB
:1000A800B301B401622805177208203E8400831347
:1000B800000888000130B3000030B4000B11FF3095
:1000C80081000B1C68286928782806186C286D2878
:1000D80070280708013E8700861873287428772837
:1000E8000708FF3E87000B1079088A00780884000B
:1000F800770E8300FE0E7E0E090001308312031373
:10010800B3000030B400013083160317880089015A
:100118008316031305140512851205130614861495
:1001280087018801831203138501860187018801ED
:10013800831603130F138F160F120F1481128111D8
:1001480001158114011481130330950016149614B7
:100158008B170B148B150B170B110C17831203132A
:100168000C131F139F171F14C3309F05BB280000D3
:10017800831603139F131F129F1208000A128A1175
:1001880081200A128A1170080A128A11F9200A12AB
:100198008A11831203139F18D228D328D928D42868
:1001A800D528D628831203139F140A128A11E22035
:1001B8000A128A11C7280A128A110E287108803A71
:1001C80083120313B00080303002031DED280708A6
:1001D80070020318F028F128F52883120313051676
:1001E800F828831203130512080083120313B200C0
:1001F80032080F39B0003008F2003208B00004307D
:100208000310B00CFF3E031D042930080F39B1005C
:100218003108F30008007E088A007F0882000A126D
:100228008A110F210A128A118000840A04087D06A7
:1002380003190034FF0A0319FE0A13293F34063450
:100248005B344F3466346D347D3407347F346F3417
:0C02580077347C3439345E3479347134EE
:04400E00D420FF3F7C
:00000001FF
