:020000040000FA
:060000000A128A110E280D
:10000800FE00030EF7000408F8000A08F9000A12B7
:100018008A1185280A128A11112883133030FD00AD
:100028000130FE007730FF00203084000A128A1168
:1000380068210A128A11B501B601F001F101F20135
:10004800F301F40183010A128A1117298312031399
:10005800B2006E28C3309F05312832283328831216
:1000680003131F139F131F14831603139F139F1249
:100078001F128428C3309F05412842284328831231
:1000880003131F179F131F14831603139F139F1225
:100098001F128428C3309F055128522853288312E1
:1000A80003131F139F171F14831603139F139F1205
:1000B8001F128428C3309F05612862286328831291
:1000C80003131F179F171F14831603139F139F12E1
:1000D8001F1284283208B000B1013108003A031910
:1000E800762884283008003A03192E28013A031983
:1000F8003E28033A03194E28013A03195E2884283A
:100108000800831203130C1F8A288B289C281F0CB5
:10011800F500750C0F39003A031D932894289B2885
:100128001E08F500F6017508F0007608F1000C13BA
:100138000B1D9F28A028C0288512051333033404FB
:10014800031DA728A828B22885167308203E840016
:10015800831300088800B301B401BD28051772088D
:10016800203E84008313000888000130B30000306B
:10017800B4000B11FF3081000B1CC328C428D328FE
:100188000618C728C828CB280708013E8700861804
:10019800CE28CF28D2280708FF3E87000B10790801
:1001A8008A0078088400770E8300FE0E7E0E090010
:1001B800013083120313B3000030B40001308316FA
:1001C8000317880089018316031305140512851285
:1001D8000513061486148701880183120313850109
:1001E800860187018801831603130F138F160F12D8
:1001F8000F14811281110115811401148113033028
:100208009500161496148B170B148B150B170B11DE
:100218000C17831203130C1302300A128A112A20B6
:100228000A128A1108000A128A11DC200A128A119D
:1002380070080A128A114E210A128A1183120313B6
:100248009F18272928292E2929292A292B29831269
:1002580003139F140A128A1137210A128A111C29C2
:100268000A128A110E287108803A83120313B0000B
:1002780080303002031D42290708700203184529FF
:1002880046294A298312031305164D29831203139D
:100298000512080083120313B20032080F39B000A8
:1002A8003008F2003208B00004300310B00CFF3EF2
:1002B800031D592930080F39B1003108F30008002F
:1002C8007E088A007F0882000A128A1164210A12B5
:1002D8008A118000840A04087D0603190034FF0A85
:1002E8000319FE0A68293F3406345B344F346634F8
:1002F8006D347D3407347F346F3477347C3439344B
:060308005E34793471340B
:04400E00D420FF3F7C
:00000001FF
