:020000040000FA
:060000000A128A110C280F
:10000800FE00030EF0000A08F1000A128A116E2998
:100018000A128A110F28FA01FB0183010A128A11B8
:10002800B528003083120313A4000030A300003069
:10003800A2000030A1007508740473047204031947
:10004800262827287428A501A50A37280130A000EA
:100058000310F20DF30DF40DF50DA00B2C28013053
:10006800A0002008A507F51F3A283B282A280130B8
:10007800A0000310A10DA20DA30DA40DA00B3D28F7
:1000880075087902031D522874087802031D522846
:1000980073087702031D522872087602031C55283C
:1000A800562865287208F6027308031C730FF702B6
:1000B8007408031C740FF8027508031C750FF90205
:1000C800211401300310F50CF40CF30CF20CFF3E74
:1000D800031D66280130A502031D732874283B28D8
:1000E8002408F5002308F4002208F3002108F20090
:1000F8000800283083120313940083160313910118
:10010800831203132608AA002708AB002808AC00AE
:100118002908AD0002300310AA0DAB0DAC0DAD0DD2
:10012800FF3E031D8F282D08F5002C08F4002B082E
:10013800F3002A08F2000030F9007A30F800123093
:10014800F7000030F6000A128A1115200A128A11E7
:100158007208FF3E83160313930094018715071650
:1001680008000A128A111A210A128A110A128A111F
:1001780065210A128A115130F2000030F3000A1288
:100188008A1152210A128A110030F200F3000A1271
:100198008A11EC200A128A1172088312031386004E
:1001A8000A128A115C210A128A110230831203137F
:1001B800B0000430AF00B930AE00AE0BE128AF0B91
:1001C800E128B00BE128E828BA280A128A110C287D
:1001D8000A128A1145210A128A11831603139115EE
:1001E8000A128A1145210A128A118312031313086D
:1001F800F400F5017408F6007508F7000A128A1170
:1002080045210A128A1172037304031D0C290D2952
:1002180011298316031391121429831603139116B7
:1002280011167708F3007608F20008008316031702
:10023800880189018316031386018312031386013B
:100248008316031387150716831203138501860186
:10025800870188018901831603130F128F160F1760
:100268000F14003083120313A9000130A800863050
:10027800A700A030A6000A128A117D200A128A114E
:1002880008008316031314194A294B294529110814
:100298001F39031D50295129452908000A128A11BE
:1002A80045210A128A117208831203139300080069
:1002B8000A128A1145210A128A118316031311158D
:1002C80008000A128A1145210A128A11831603139B
:1002D8001114080071088A00700E8300FE0E7E0E4D
:0202E80009000B
:04400E00D420FF3F7C
:00000001FF
