:020000040000FA
:060000000A128A110C280F
:10000800FE00030EFA000A08FB000A128A115C2897
:100018000A128A110F280A128A1189200A128A11D3
:10002800F4000A128A118A200A128A11F5000A12AB
:100038008A118B200A128A11F6000A128A118C2062
:100048000A128A11F700F001F101F201F3018301AC
:100058000A128A11802883160317880189018316DA
:100068000313850106148614061587018801831277
:1000780003138501860187018801831603130F1373
:100088008F160F120F14811281110115811401149A
:100098008113073095001614961416158B170B1438
:1000A8008B158B160B11F901F90AF801F80A0800EB
:1000B8000B1C5F286028782883120313061865280C
:1000C80066286828F301F30A86186B286C287028BC
:1000D800790887000310F90D061973287428782801
:1000E800780888000310F80D0B107B088A007A0E38
:1000F8008300FE0E7E0E09000A128A112F200A12B2
:100108008A1185280A128A110C283F3406345B3478
:020118004F3462
:04400E00D420FF3F7C
:00000001FF
